:020000040800F2
:100000004017002009010008A3180008291800085B
:10001000A118000837030008FD1E000800000000BA
:100020000000000000000000000000002919000886
:100030007303000800000000A51800082B19000831
:100040002301000823010008230100082301000800
:1000500023010008230100082301000823010008F0
:1000600023010008230100082301000823010008E0
:1000700023010008230100082301000839030008B8
:1000800023010008230100082301000823010008C0
:1000900023010008230100082301000823010008B0
:1000A00000000000230100082301000823010008CC
:1000B000E1190008230100082301000823010008BA
:1000C0002301000823010008230100082301000880
:1000D00023010008E51E0008F11E000823010008A6
:1000E0002301000823010008230100082301000860
:1000F00023010008DFF80CD000F0AAF80048004700
:10010000A121000840170020064880470648004704
:10011000FEE7FEE7FEE7FEE7FEE7FEE7FEE7FEE7B7
:10012000FEE7FEE791190008F5000008D2B201E0F1
:1001300000F8012B491EFBD270470022F6E710B5EC
:1001400013460A4604461946FFF7F0FF204610BD45
:1001500010B5002200E0521C835C8C5CA34201D1EC
:10016000002BF8D1D8B2E1B2401A10BD034611F805
:10017000012B00F8012B002AF9D118467047000026
:1001800070B50F4D00B92868002412E00A4602E05D
:100190009E4203D0521C1378002BF9D1DAB22243CD
:1001A00005D02BB124B1002100F8011B04E0044666
:1001B000401C0678002EE9D12860204670BD000062
:1001C0002C00002070B5064601F010FF04680546BB
:1001D0000A220021304600F002F82C6070BD2DE9A3
:1001E000F04791460F4680460446002614F8015B0E
:1001F0002DB100F03FF80068405DC007F6D12B2D0F
:1002000002D02D2D18D0641E4A463946204600F0F3
:1002100035F827B13968A14201D1C7F800807105CE
:100220004FF002040BD54042002803DD01F0DEFE52
:100230000460A007BDE8F08746F48066E4E7002884
:10024000F8DA01F0D3FE04606FF00040F2E700003E
:10025000064C074D06E0E06840F0010394E8070013
:1002600098471034AC42F6D3FFF748FF5C240008EF
:100270007C24000800487047582400082DE9F05FEE
:1002800082460078002715468B460AF10104B946DC
:10029000302801D09DB113E014F8010B0127782814
:1002A00003D0582801D045B10AE00DB1102D07D177
:1002B0000027102514F8010B02E0082500E00A25AC
:1002C0000026B0460EE005FB080005FB06F10127FD
:1002D00001EB10461FFA80F8B6F5803F00D3B9460F
:1002E00014F8010B294600F018F80028EBDABBF1EE
:1002F000000F05D00FB1641E00E05446CBF800405B
:10030000B9F1000F06D001F071FE02210160C81E94
:10031000BDE8F09F48EA0640FAE73A2800D23038B4
:1003200020F02002412A01D3A2F13700884201D3F4
:100330004FF0FF307047FEE7014800F043B800007F
:10034000F401002030B590F8404004F01C05012471
:10035000AC40C56B6C60046863604368102B036835
:1003600003D099600068C26030BD9A600068C160C7
:1003700030BD7047704710B590F821100024022955
:1003800003D00421816301241AE001680A6822F085
:100390000E020A6001680A6822F001020A6090F801
:1003A0004010C36B01F01C02012101FA02F25A60F5
:1003B00080F82110002180F82010416B01B188479E
:1003C000204610BDF0B4C16B0C6801680D6890F850
:1003D000402002F01C06042202FA06F3234211D048
:1003E0006B070FD50B689B0603D40B6823F004033F
:1003F0000B6090F8401001F01C018A40C16B4A600C
:10040000C16A1DE0022303FA06F727424FF0000CF1
:100410004FF0010218D0AF0716D50C68A40605D41A
:100420000C6824F00A040C6080F8212090F8401039
:1004300001F01C018B40C16B4B6080F820C0816AC9
:1004400000291AD0F0BC08470823B340234214D037
:100450002B0712D50B6823F00E030B6090F84010A9
:10046000C36B01F01C0102FA01F15960826380F84C
:10047000212080F820C0016BE2E7F0BC704700004B
:1004800030B528B308C8134914221944B1FBF2F15E
:100490008900C16310498163022141771A6847F6D8
:1004A000F0718A43D0E900142143D0E902452C437E
:1004B0002143046921434469214384692143114351
:1004C000196000214163012242770177084630BD5F
:1004D000012030BDF89FFDBF0060024070B50446AA
:1004E00090F82000002501280CD0012084F820007D
:1004F00094F821600020012E06D084F82000022507
:10050000284670BD022070BD022684F82160A063D9
:100510002068066826F0010606602046FFF712FFF5
:10052000E06A00282068016802D041F00E0106E070
:1005300021F0040101602068016841F00A010160B6
:100540002068016841F001010160D9E770B50446F7
:1005500000F0D4F80546601C02D00448406804440A
:1005600000F0CCF8401BA042FAD370BD2000002060
:100570002DE9F84FDFF864B100234FF0010C4FF084
:10058000030A4FF00F090BF1040EA0E00CFA03F67A
:10059000324072D04C68022C01D0122C0ED1DC08F3
:1005A00000EB8408D8F820405D07EF0E09FA07F544
:1005B000AC430D69BD402543C8F8205007685D0075
:1005C00091F804800AFA05F408F00308A74308FA32
:1005D00005F848EA0708C0F800804F68012F05D0E9
:1005E000022F03D0112F01D0122F11D18768D1F81B
:1005F0000C80A74308FA05F848EA0708C0F8088005
:100600004768B7430E79C6F300169E403E434660E6
:10061000C668A6438C68AC403443C4604C68E400B0
:1006200054D52F4C256845F001052560246823F03A
:10063000030504F0010400942A4C2544AF689C078C
:10064000240F09FA04F6B743274EB04201D1002621
:1006500015E0264EB04201D1012610E0244EB042F2
:1006600001D102260BE0234EB04201D1032606E061
:10067000214EB04202D1042601E027E00526A64023
:100680003E43AE60DBF800405D464E689443F6039F
:1006900000D514432C60DEF8004075464E68944344
:1006A000B60300D514432C600C4D08352C684E68F9
:1006B0009443F60200D514432C60084D0C352C6889
:1006C0004E689443B60200D514432C605B1C0A6844
:1006D00032FA03F47FF45AAFBDE8F88F000401400A
:1006E00020380240000001400000024000040240A7
:1006F00000080240000C02400010024001488068DF
:1007000070470000200000200248816842681144C0
:10071000816070472000002010B50024032000F005
:1007200079F8002000F008F808B1012401E000F099
:1007300025F8204610BD000070B50E4E0546002479
:10074000706898B14FF47A71B1FBF0F00A4909680A
:10075000B1FBF0F000F0A6FB40B9102D06D200224C
:100760002946501E00F036F8356000E0012420468E
:1007700070BD0000200000201C0000200D4808B5BE
:10078000016841F000410160016801F00041009101
:10079000011F0A6842F001020A60096801F00101C4
:1007A0000091016841F080510160006800F08050C4
:1007B000009008BD24380240002809DB00F01F0229
:1007C000012191404009800000F1E020C0F80011B3
:1007D00070470000F0B40E4B1B680C46C3F30223B5
:1007E000C3F10705042D00D90425191D072901D2DD
:1007F000002300E0DB1E012606FA05F1491E214018
:1008000099409E40761E16403143F0BC01F0DEBB9D
:100810000CED00E0064900F0070208684FF6FF0300
:10082000184040EA0220034A104308607047000065
:100830000CED00E00000FA052DE9F0470E4605003A
:1008400079D0DFF88481D8F8000000F00100B042D0
:1008500014D2012E05D1D8F8001041F00401C8F8D7
:100860000010D8F8001021F001013143C8F8001041
:10087000D8F8000000F00100B0425CD12878534C59
:10088000800705D52068A96820F0F00008432060A3
:100890002878C0075CD04D496868083902281AD00A
:1008A00003281BD0096801281BD08905002966DAB6
:1008B000216821F0030101432160FFF71FFF6968F0
:1008C000074641F28830022914D0032920D001299B
:1008D00081462AD038E009688903E7E70968890179
:1008E000E4E78907E2E700BFFFF708FFC11B4945BE
:1008F00001D926E081462068C0F381000228F3D1A7
:1009000026E000BFFFF7FAFEC11B494501D918E0F8
:1009100081462068C0F381000328F3D118E000BFAE
:10092000FFF7ECFEC11B49450BD82068C0F38100DE
:100930000128F5D10CE022E0FFF7E0FEC11B49459C
:1009400002D90320BDE8F087206810F00C0FF3D126
:10095000D8F80010404601F00101B14211D9012E32
:1009600003D1016841F004010160016821F0010137
:1009700031430160006800F00100B04201D0012065
:10098000E0E72878400705D52068E96820F4E060B2
:10099000084320602878000706D52068296920F4DC
:1009A000605040EAC100206000F038F82168084A31
:1009B000C1F30311515CC84006490860064800684D
:1009C000BDE8F047FFF7B8BE003C024008380240DF
:1009D000BD2300081C000020200000200448054919
:1009E00000680968044AC1F30221515CC84070479D
:1009F0001C00002008380240CD23000804480549A7
:100A000000680968044AC1F3C221515CC8407047BC
:100A10001C00002008380240CD230008134A11684A
:100A200001F00C0004280CD008280CD00C280CD0A5
:100A3000101F0068C0F342314FF40040491C884049
:100A400070470B4870470B4870470B48C1F383430E
:100A50001268C05CC1F38151491CD20301D5054A1B
:100A600000E0034A5043B0FBF1F070470838024001
:100A70000024F40000127A00B42300082DE9F84F96
:100A800004007DD0FC480168006801F00C0700F408
:100A900080362078F94DC00741D0082F12D00C2F96
:100AA00002D1B6F5803F0DD06068012811D008B1A1
:100AB000052818D0286820F480302860286820F4A1
:100AC000802009E02868800329D560680028D8D0F4
:100AD00025E0286840F480302860606890B1FFF716
:100AE0000DFE80460AE0286840F480202860F0E788
:100AF000FFF704FEA0EB080064287BD82868800379
:100B0000F6D50CE0FFF7FAFD804605E0FFF7F6FDAD
:100B1000A0EB08006428F0D828688003F6D4207879
:100B2000DFF85CB3DFF85C8380074FF001094FF01A
:100B3000000A35D5042F0AD00C2F00D13EB1E06851
:100B4000F8B1C8F80090FFF7D9FD06460BE0286819
:100B500080070BD5E068012812D107E0FFF7CEFD32
:100B6000801B0228C9D828688007F7D5DBF8001059
:100B7000226921F4F85141EA0221CBF800100FE07C
:100B800077E1C8F800A0FFF7B9FD064605E000BF11
:100B9000FFF7B4FD801B0228AFD828688007F7D480
:100BA0002078C00674D53FB1A069E0B3C8F82090A2
:100BB000FFF7A4FD06464AE02868800502D5A06933
:100BC000002884D0206ADBF800105E4601F4604102
:100BD000884210D900F068FE0028BDD13068216A33
:100BE00020F4604008433060217F306861F31F606B
:100BF00030600FE096E0316821F4604101433160DC
:100C0000217F306861F31F603060206A00F04CFE85
:100C10000028A1D1216A4FF4004009EB51318840EE
:100C20009549096800E025E0974AC1F30311515C3A
:100C3000C8409649086096480068FFF77DFD002887
:100C40006FD125E0FFF75AFD801B02286AD828687B
:100C50008005F7D5DBF80010226A21F460411143CA
:100C6000CBF80010227FDBF8001062F31F61CBF895
:100C700000100DE0C8F820A0FFF740FD064604E094
:100C8000FFF73CFD801B02284CD828688005F7D46C
:100C90002078804E000722D57F48616981B1C0F875
:100CA0000090FFF72BFD834606E000BFFFF726FD0F
:100CB000A0EB0B00022835D830688007F6D50EE08F
:100CC000C0F800A0FFF71AFD834605E0FFF716FD08
:100CD000A0EB0B00022825D830688007F6D42078D6
:100CE00040076DD56B484FF0000B10380068C0000E
:100CF0000BD468481038016841F0805101600068E9
:100D00004FF0010B00F08050009064480168C90565
:100D100014D4016841F480710160FFF7EFFC00908A
:100D200008E08DE079E000BFFFF7E8FC0099401A89
:100D3000642872D859480068C005F5D5A068012814
:100D40000AD008B1052811D0306820F480703060D6
:100D5000306820F4806002E0306840F480703060D9
:100D6000A068A8B1FFF7CAFC00900DE0306840F41D
:100D700080603060F0E700BFFFF7C0FC0099411AC7
:100D800041F2883081425AD830688005F4D50EE0AF
:100D9000FFF7B4FC009007E0FFF7B0FC0099411AA0
:100DA00041F2883081424AD830688005F4D4BBF1E2
:100DB000000F05D037481038016821F080510160DC
:100DC000606A58B30C2F41D00228504605D0C8F8AD
:100DD0006000FFF793FC044634E04746C8F8600023
:100DE000FFF78CFC064604E0FFF788FC801B022816
:100DF00025D828688001F7D4D4E90A1001431E4899
:100E0000226B036823F47D031A4311430160C7F882
:100E10006090FFF773FC044607E010E040E000BF7D
:100E2000FFF76CFC001B022809D828688001F7D561
:100E300036E000BFFFF762FC001B022802D9032046
:100E4000BDE8F88F28688001F4D429E00128F7D0A4
:100E500009480068A26A00F48031914209D1E26A2F
:100E600000F47011914204D1216B00F440008842DB
:100E700016D00120E4E700000838024000380240A4
:100E80000438024000004742BD2300081C00002037
:100E900020000020343802408006474200700040A5
:100EA0000020CDE710B5401EB0F1807F01D30120B6
:100EB00010BD4FF0E02460610F21601701F086F84B
:100EC0000020A06107202061002010BD70B590F8BF
:100ED0003820012A19D0012400F8384F022242702C
:100EE00050F8383C5A689D6822F070060A684968D4
:100EF000324325F0800529435A6050F8382C916020
:100F0000447000210170084670BD022070BD10B50C
:100F1000040003D094F8390010B107E0012010BD9F
:100F2000002084F83800204600F00CF8022084F8F5
:100F30003900211D206800F059FD012084F8390096
:100F4000002010BD38B505460068B0F1804F2AD1A9
:100F50001548016841F0010101600068144C00F07F
:100F60000100009011482060102060600020802166
:100F7000C4E90201490021618900C4E90510880023
:100F8000E0612046FFF77CFA08B1FFF7F3F92C6225
:100F9000002201211C206562FFF71CFCBDE83840DF
:100FA0001C20FFF709BC38BD2438024058600240BD
:100FB000F401002070B5044690F83800012817D0DD
:100FC000012584F83850022084F8390020688268AE
:100FD00022F0770222F47F4282600868502830D0E5
:100FE0000DDC20284DD005DC98B310283BD148E01B
:100FF000022070BD302844D0402834D139E0602828
:1010000028D0702806D0B0F5805F2CD0B0F5005FF6
:1010100029D10AE0CB68D1E90121206800F073FDF5
:101020002068816841F0770109E0CB68D1E90121AE
:10103000206800F068FD2068816841F4804181608B
:1010400011E0CA684968206800F0CCFD5021206892
:1010500007E016E0CA684968206800F0D4FD602106
:10106000206800F05AFD84F83950002084F83800D8
:1010700070BDCA684968206800F0B4FD402120684E
:10108000EFE7226801461046EBE77047704770B5FE
:101090000446006801694FF00005C943890715D46B
:1010A000C168C943890711D4E91E01610120207676
:1010B000206880698007204602D0FFF7E7FF04E040
:1010C00000F09EF8204600F020F92576206801699E
:1010D000C943490717D4C168C943490713D46FF0FE
:1010E00004010161022020762068806910F4407FAD
:1010F000204602D0FFF7CAFF04E000F081F8204646
:1011000000F003F9257620680169C943090716D460
:10111000C168C943090712D46FF0080101610420B6
:1011200020762068C0698007204602D0FFF7AEFF16
:1011300004E000F065F8204600F0E7F82576206826
:101140000169C943C90617D4C168C943C90613D484
:101150006FF010010161082020762068C06910F44A
:10116000407F204602D0FFF791FF04E000F048F8EE
:10117000204600F0CAF8257620680169C943C907EE
:1011800008D1C168C943C90704D1891E016120463D
:1011900000F052F920680169C943490609D4C168C1
:1011A000C943490605D46FF040010161204600F0B3
:1011B00044F970BD10B586B0044614216846FEF7A8
:1011C000BCFF2068B0F1804F14D10B48016841F09A
:1011D000010101600068022100F00100059001207A
:1011E000CDE9000100210291CDE9031069460348D1
:1011F000FFF7BEF906B010BD1C38024000000240E7
:10120000704770B5044690F838000D4601280DD09F
:10121000012684F83860022084F8390042B1042A9B
:1012200018D0082A2AD00C2A4DD139E0022070BDEE
:10123000206800F07AFC2068816941F00801816132
:101240002068816921F00401816120688169EA6870
:10125000114311E0206800F07EFC2068816941F4B0
:10126000006181612068816921F480618161206869
:101270008169EA6841EA0221816124E0206800F086
:1012800082FC2068C16941F00801C1612068C16920
:1012900021F00401C1612068C169EA68114311E0CD
:1012A000206800F087FC2068C16941F40061C161D9
:1012B0002068C16921F48061C1612068C169EA6860
:1012C00041EA0221C16184F83960002084F83800C5
:1012D00070BD10B5040003D094F8390010B107E0D8
:1012E000012010BD002084F83800204600F00CF8E2
:1012F000022084F83900211D206800F077FB0120CE
:1013000084F83900002010BD70477047704710B551
:1013100004460068012200F0A3FB2068816801F008
:101320000701062903D0016841F001010160002096
:1013300010BD00002DE9F041044690F83900174631
:101340000D46022848D094F83900012805D10FB97C
:10135000002B63D1022084F8390034483449354EDB
:1013600035B1042D16D0082D38D00C2D24D148E0ED
:10137000226A9062206AC162206A39460663226846
:10138000206A3432FFF7AAF8D0BB2068C16841F464
:10139000007110E0626A9062606AC162606A3946F8
:1013A00006632268606A3832FFF798F840BB20680D
:1013B000C16841F48061C16001222946206800F0C3
:1013C0004FFB2068816801F00701062903D00168FE
:1013D00041F0010101600020BDE8F081A26A906245
:1013E000A06AC162A06A394606632268A06A3C32DC
:1013F000FFF774F820B92068C16841F40061DAE7AA
:101400000CE0E26A9062E06AC162E06A3946066313
:101410002268E06A4032FFF761F808B10120DBE79B
:101420002068C16841F48051C5E700007B1A0008BC
:10143000B91A0008F71A0008704770477047000093
:1014400070B5026804461068D168536910F00F0F38
:1014500050D003F0010501F4907635435DD0C2070A
:1014600005D0CA0503D5E26B42F00102E2634207F0
:1014700005D5DA0703D0E26B42F00202E26382078D
:1014800005D5DA0703D0E26B42F00402E2630207FB
:1014900005D5DA0703D0E26B42F00802E263E26BA3
:1014A000002A33D0800604D5880602D5204600F0F5
:1014B000D2FB20684069E16BC0F38010090700D4BB
:1014C00028B3204600F0B9FB2068416949061AD5C7
:1014D000416921F040014161606BA0B11B4941634A
:1014E000606BFEF748FF002810D0606B416BBDE8D1
:1014F00070400847830610D58B060ED52046BDE800
:10150000704000F0A8BB2046FFF798FF70BD204652
:10151000FFF794FF0020E06370BD030606D50B06BD
:1015200004D52046BDE8704000F078BC4006F3D5F5
:101530004806F1D5D168204621F04001D160202134
:1015400084F8391000F06FF970BD00002B1C000802
:1015500070B5040004D094F83900002510B106E0FD
:10156000012070BD84F83850204600F023F8242074
:1015700084F839002068C16821F40051C160204618
:1015800000F0B4FB2068016921F4904101612068FA
:10159000416921F02A0141612068C16841F400518C
:1015A000C160E563202084F8390084F83A00002007
:1015B00070BD0000F0B587B0044614216846FEF700
:1015C000BCFD294F22680023284902240325072651
:1015D0002748BA4220D10A1D176847F48047176090
:1015E000126802F4804205920A6842F001020A6021
:1015F000096802AA01F0010105916902CDE9001410
:1016000082E868006946FEF7B3FF00220221252028
:10161000FFF7E0F8252023E0164FBA4222D1134A03
:101620000832176847F400371760126802F4003276
:1016300005920A6842F001020A60096802AA01F0F4
:10164000010105910C21CDE9001482E8680069468A
:10165000FEF78EFF002202212620FFF7BBF826208E
:10166000FFF7AAF807B0F0BD003801401C3802406F
:10167000000002400044004090F83A30202B22D174
:10168000F9B1F2B190F83830012B1CD0816282851B
:10169000C2850021C163222280F83A2080F83810E8
:1016A0000168CA6842F48072CA6001684A6942F0FF
:1016B00001024A610068C16841F02001C160002058
:1016C00070470120704702207047000070B5064641
:1016D0000068224A00250121214C90421BD16069FB
:1016E000204A401C6061904203D1A2F180006061F9
:1016F00004E010F8010C0A2800D1217001223046C4
:101700006169FFF7B9FF6D1CEDB2A070052D20D205
:101710000028F3D11DE0144A90421AD1A069114A61
:10172000401C8032A061904202D10E48A06104E0CA
:1017300010F8010C0A2800D1617001223046A1691D
:10174000FFF79AFF6D1CEDB2E070052D01D2002865
:10175000F3D1BDE8704000F0DBBC00000038014070
:1017600000000020B8000020004400402DE9F843AC
:10177000044690F839001F4616460D46202850D1E1
:10178000A5B19EB194F8380001284AD0012084F810
:1017900038004FF00008C4F83C80212084F839005C
:1017A000FEF7ACFFA6848146E68426E00120BDE872
:1017B000F883E08C401EE084A0684B46B0F5805F63
:1017C0004FF000024FF080012046009703D000F058
:1017D00056FBE8B90DE000F052FBC8B92888216833
:1017E000C0F308004860206908B16D1C05E0AD1C1D
:1017F00003E0216815F8010B4860E08C0028D8D17F
:101800004B46002240212046009700F038FB08B1EB
:101810000320CCE7202084F8390084F838800020A9
:10182000C5E70220C3E77047FEE7000010B58AB0A5
:1018300000241A4804940594069407940894099483
:101840000094019402944FF080410394C0E9001485
:101850002721C0E9024104614461FFF758FB4FF4BE
:101860008050049004A90D48FFF7A4FB0B48FFF734
:1018700030FD089408A909480994FFF727FB602068
:10188000CDE9000402940022694604480394FFF75E
:10189000B8FC0248FFF78EFC0AB010BD38010020EA
:1018A000FEE770477047000038B51C4900230968FF
:1018B0001B4A11F0F00F23D118491C310C68E500C8
:1018C000184C03D5216801F4C0540EE00D6845F0B2
:1018D00080550D600D6805F08055009524680D68F1
:1018E00004F4C05425F080550D60B4F5C05F07D1F5
:1018F000B0F5404F04D11068012340F0040010609F
:10190000106820F0010018431060106800F001001A
:10191000984201D0012038BD002038BD083802406F
:10192000003C0240007000407047FEF7EDBE000032
:1019300000B593B034216846FEF7FFFB14210DA8D3
:10194000FEF7FBFB1148016821F4C05141F400612E
:10195000016001200090019002200990C0030A90CC
:1019600000010B90C0000C906846FFF787F80F202D
:101970000D9003200E9000200F90109011900121E7
:101980000DA8FEF759FF13B000BD00000070004025
:101990000F48016841F4807101600D4908310A68FF
:1019A0000C4B1A400A6002680B4B1A400260026836
:1019B00022F480220260086820F47D000860002084
:1019C000091D086005494FF000600860704700007D
:1019D000003802400CC0FF88FEFFFEEE08ED00E07C
:1019E0000148FFF754BB00003801002070B50268C1
:1019F0004FF08046154B164CB04203D0984201D0B0
:101A0000A04205D122F070054A682A43B0420CD0AA
:101A100098420AD0A04208D00E4B984205D00E4BF7
:101A2000984202D00D4B984203D122F44073CA6809
:101A30001A430B6922F080021A4302608A68C2626C
:101A4000096881620121416170BD0000000400400D
:101A50000008004000080140000C01400010014057
:101A600010B501F01F030121046A99408C43046200
:101A7000016A9A401143016210BD10B5446A012108
:101A800084F83910226A824201D121760EE0616A1F
:101A9000814201D1022008E0A16A814201D10420E3
:101AA00003E0E16A814201D1082020762046FFF759
:101AB0002CFC0020207610BD10B5446A012184F86A
:101AC0003910226A824201D121760EE0616A814298
:101AD00001D1022008E0A16A814201D1042003E083
:101AE000E16A814201D1082020762046FFF70EFCF2
:101AF0000020207610BD10B5406A012180F8391011
:101B0000FFF7C3FA10BD10B5846842EA032224F43B
:101B10007F440A432243826010BD826822F0700233
:101B20000A4342F007018160704730B5026A22F033
:101B300001020262036A4468826922F073050A683E
:101B40002A4323F002058B6844602B438261496875
:101B50004163036230BD30B5026A22F010020262B6
:101B6000046A426883690D6823F4E64343EA052367
:101B70008D6824F0200444EA0514426083614968BA
:101B80008163046230BD30B5026A22F48072026261
:101B9000046A4368C26924F4007422F073050A6879
:101BA0002A438D68436044EA0524C2614968C163E1
:101BB000046230BD30B5026A22F480520262046AC7
:101BC0004268C3690D6823F4E64343EA05238D6840
:101BD00024F4005444EA05344260C3614968016456
:101BE000046230BD10B5036A046A24F00104046283
:101BF000846924F0F00444EA021423F00A020A4340
:101C00008461026210BD10B5036A23F01003036201
:101C10008369046A23F4704343EA023224F0A00388
:101C200043EA01118261016210BD10B5406A0021D2
:101C3000C185C184FFF702FC10BD0168CA6822F4A7
:101C40009072CA6001684A6922F001024A6120214B
:101C500080F83A10704710B590F83A10222901D058
:101C6000022010BD8168B1F5805F11D001690029A3
:101C700001681FD0496801F07F03816A4A1C8262B3
:101C80000B70C18D491E0904090CC18518D02BE0C9
:101C90000269816A002A0268526805D0D2B20A80BD
:101CA000816A491C8162ECE7C2F308020A80816AFA
:101CB000891CF7E74A68816A4B1C83620A70E0E777
:101CC0000168CA6822F02002CA600168CA6822F46A
:101CD0008072CA6001684A6922F001024A612021CB
:101CE00080F83A10FFF7F2FC002010BD2DE9F0411A
:101CF000044600680169E26821F440511143016122
:101D00002169A068E26908436169114322680843B8
:101D1000D16849F20C6399430143D160206841695D
:101D2000A26921F4407111434161E16964253226C1
:101D3000B1F5004F3848216804D081423DD1FEF70B
:101D40005DFE3CE0814202D1FEF758FE01E0FEF765
:101D500045FE00EBC00101EB001160686FF0180C4C
:101D60004000B1FBF0F3B3FBF5F3B1FBF0F7B1FBCF
:101D7000F0F203FB0CF307EB830306EBC303B2FBA8
:101D8000F5F2B3FBF5F3120103F0F80302EB4302A3
:101D9000B1FBF0F3B1FBF0F0B0FBF5F000FB0CF0A1
:101DA00003EB800006EBC000B0FBF5F000F007008D
:101DB000216810448860BDE8F081FEF70FFE00EB5B
:101DC000C00101EB001160686FF018078000B1FBE3
:101DD000F0F2B2FBF5F2B1FBF0F37A4303EB8202CF
:101DE000B1FBF0F306EB0212B2FBF5F2B3FBF5F335
:101DF00002F0F00202EB0312B1FBF0F3B1FBF0F0E2
:101E0000B0FBF5F0784303EB800006EB0010B0FB6D
:101E1000F5F000F00F00CBE70038014090F83910E2
:101E2000212901D0022070478168B1F5805F016AE5
:101E30000BD04A1C0262026809785160C18C491EAD
:101E40000904090CC1840ED017E009880268C1F3A7
:101E50000801516001690029016A02D0491C016230
:101E6000ECE7891CFBE70168CA6822F08002CA60BF
:101E70000068C16841F04001C160002070472DE951
:101E8000F041984617460E460446069D1DE0681C24
:101E90001BD02DB1FEF732FCA0EB0800A84214D9EC
:101EA0002068C16821F4D071C1602068416921F0C7
:101EB00001014161202084F8390084F83A000020B3
:101EC00084F838000320BDE8F0812068006836EA15
:101ED000000004D00020B842D9D00020F3E7012050
:101EE000F9E700000148FFF7ABBA000074010020D9
:101EF0000148FFF7A5BA0000B4010020FEE7002268
:101F000010B51146104600F0F3F900F005F8BDE8F1
:101F100010406420FEF71ABB2DE9F05FDFF884A0C3
:101F20000020AAF11E0B4FF080090AF11E0E0AF1E3
:101F30003C071AF800501BF800401EF80030002142
:101F400000EB400C29FA01F2154202D04FF01A08BA
:101F500001E04FF00D0801EBCC0607EB46061442FA
:101F6000A6F8068002D04FF01A0801E04FF00D08E5
:101F7000A6F81680134201D01A2200E00D22491C57
:101F800049B2F2840829DDDB401C40B21E28D0DBB8
:101F9000BDE8F05F034A4FF435733C32002102483C
:101FA000FFF7C8B956020020380100200FB4054BD6
:101FB00010B503A9044A029800F02BF810BC5DF894
:101FC00014FB0000E9200008300000200907090E7A
:101FD000002804DB00F1E02080F80014704700F0D6
:101FE0000F0000F1E02080F8141D70470048704792
:101FF0003400002002E008C8121F08C1002AFAD1EC
:1020000070477047002001E001C1121F002AFBD178
:1020100070472DE9F84F99469246884605460027B5
:1020200006E025280AD051464A4690476D1C7F1C81
:1020300028780028F5D13846BDE8F88F002315F838
:10204000011F18462E2915D115F8011F04232A292E
:102050000DD06FF02F022978A1F13004092C09D896
:1020600000EB800002EB400008446D1CF3E758F8D9
:10207000040B6D1C2A78002ADDD0632A07D0732A4E
:102080000FD0104651464A4690477F1C2AE018F868
:10209000042B8DF8002000218DF801106E460121DF
:1020A00003E058F8046B4FF0FF315A074FF000047B
:1020B00001D409E0641C84420BDA8C42FADB325D05
:1020C000002AF7D105E0641C8C42FCDB305D00285F
:1020D000F9D1274404E016F8010B51464A469047CF
:1020E000641EF8D26D1CA3E713B54FF6FF742346A8
:1020F000012269460548FFF739FB044823460122BF
:1021000069464030FFF732FB00201CBD74010020FF
:1021100070B51B4C0025207868B11A491AA0FFF74A
:1021200045FF80211748FEF708F81648606100F562
:102130009E7188622570607878B11248803000F016
:10214000B1F8104880218030FDF7F7FF0D4880304E
:1021500000F1FC01A06188626570A07828B10122BD
:102160000E486169FFF788FAA070E078002806D071
:102170000A48012240306169FFF77EFAE07070BDC5
:1021800000000020380000207278315F7265635FC4
:1021900064617461203D20257300000074010020FB
:1021A00008B5FEF7B9FAFFF7C3FB3048016841F004
:1021B00004010160016801F004010091016841F02F
:1021C00020010160016801F020010091016841F0E7
:1021D00001010160016801F001010091016841F015
:1021E000807101600068002200F080700090012181
:1021F0000F20FEF7EFFA0F20FEF7DEFAFFF716FBCF
:102200001C481B494FF4E13500240160C0E901542A
:102210000C26C460C0E904468461C461FFF798F9E4
:102220001448154940300160C0E90154C460C0E958
:1022300004468461C461FFF78BF910A0FFF7B6FE76
:10224000174C01220B486169FFF716FAA070094884
:1022500001224030A169FFF70FFAE0700548002124
:102260003C38FFF754F8FFF74AFEFEE71C380240FF
:102270000038014074010020004400405769726535
:102280006C65737320436F6E74726F6C2043656965
:102290006C696E67204C69676874730A00000000FF
:1022A0000000002070B505460DA1FDF751FF0D4C53
:1022B00040B10DA12846FDF74BFF30B1BDE870409D
:1022C00000F03AB80120606070BD0020024601466F
:1022D000606000F00DF8BDE87040FFF71DBE000023
:1022E0004F4E0A00000000204F46460A0000000042
:1022F0002DE9F0410E460746154600241E210B48E5
:10230000FDF71BFF1E210A48FDF717FF1E21094894
:10231000FDF713FF05480649064A07550E551555A2
:10232000641CE4B21E2CF8D3BDE8F08156020020F4
:10233000380200207402002070B51B484068012854
:1023400031D11A481AA1FDF71BFF01461648083083
:10235000FDF70CFF16A10020FDF712FF0146124801
:102360000C30FDF703FF12A10020FDF709FF014625
:102370000D481030FDF7FAFE0B480830FDF722FF3C
:10238000C5B209480C30FDF71DFFC4B20648103035
:10239000FDF718FFC2B221462846FFF7A9FFBDE8A6
:1023A0007040FFF7B9BD70BD00000020B8000020EC
:1023B0007C000000030406080C1018203000000008
:1023C00000000000000102030406070809000000E5
:1023D0000001020304004040404040404040404172
:1023E00041414141404040404040404040404040E9
:1023F0004040404040400502020202020202020246
:102400000202020202022020202020202020202080
:10241000020202020202029090909090901010101E
:1024200010101010101010101010101010101010AC
:102430001002020202020288888888888808080838
:10244000080808080808080808080808080808080C
:102450000802020202400000D62300087C24000883
:102460000000002038000000F41F0008B424000819
:1024700038000020081700000420000800000000B9
:102480000000000032353500323535003235350078
:1024900038000020B800002068FF1F001000000076
:1024A000010000000000000000000000000000002B
:0424B0000000000028
:04000005080000F5FA
:00000001FF
