:020000040800F2
:10000000681E0020450100080511000807110008BE
:100010000B1100080F110008131100080000000068
:1000200000000000000000000000000017110008A0
:1000300019110008000000001B1100081D11000824
:100040005F0100085F0100085F0100085F01000810
:100050005F0100085F0100085F0100085F01000800
:100060005F0100085F0100085F0100085F010008F0
:100070005F0100085F0100085F0100085F010008E0
:100080005F0100085F0100085F0100085F010008D0
:100090005F0100085F0100085F0100085F010008C0
:1000A0005F0100085F0100085F0100085F010008B0
:1000B0005F0100085F0100085F0100085F010008A0
:1000C0005F0100085F0100085F0100085F01000890
:1000D0005F0100085F0100084B1100085F01000884
:1000E0005F0100085F0100085F0100085F01000870
:1000F0005F0100085F0100085F0100085F01000860
:100100005F0100085F0100085F0100085F0100084F
:100110005F0100085F0100085F0100085F0100083F
:100120005F0100085F0100085F0100085F0100082F
:10013000DFF80CD001F030FE004800472D0F00081A
:10014000681E00200648804706480047FEE7FEE795
:10015000FEE7FEE7FEE7FEE7FEE7FEE7FEE7FEE777
:1001600047020008310100080CB500200190009002
:100170006C48006840F480306A49086000BF6948F4
:10018000006800F4003000900198401C0190009835
:1001900018B90198B0F5A06FF1D16248006800F479
:1001A000003010B10120009001E000200090009884
:1001B000012843D15C48006840F010005A490860AB
:1001C0000846006820F0030008600846006840F018
:1001D0000200086053484068524948600846406839
:1001E00048600846406840F48060486008464068BF
:1001F00020F47C1048600846406840F4E8104860ED
:100200000846006840F08070086000BF45480068FC
:1002100000F000700028F9D04248406820F0030048
:10022000404948600846406840F00200486000BF0E
:100230003C48406800F00C000828F9D10CBD10B50E
:10024000FFF792FF10BD10B53648006840F001007E
:1002500034490860084640683449084031494860DC
:1002600008460068324908402E4908600846006880
:1002700020F4802008600846406820F4FE004860B2
:100280004FF41F008860FFF7DAFF4FF00060294944
:10029000086010BD10B5002100200022214B5B68D2
:1002A00003F00C0121B1042906D0082928D107E068
:1002B000214B224C236027E01F4B204C236023E07E
:1002C000184B5B6803F47010164B5B6803F48032C4
:1002D000022303EB904022B9194B4343174C236090
:1002E0000DE0104B5B6803F4003323B1144B434320
:1002F000124C236003E0104B4343104C236003E097
:100300000D4B0E4C236000BF00BF064B5B68C3F370
:1003100003130C4CE15C094B1B68CB40074C23607A
:1003200010BD000000100240002002400000FFF855
:10033000FFFFF6FE08ED00E000127A00000000204A
:1003400000093D000400002031490143314A116099
:10035000704770B5002100230F22C47804B32D4CE0
:10036000246804F4E064C4F5E064210AC1F10403E4
:10037000CA40447804FA03F1847814402143090107
:10038000254C0678A155047804F01F050124AC40E3
:1003900005786D11AD0005F1E025C5F8004109E0D3
:1003A000047804F01F050124AC401C4D067876113A
:1003B00045F8264070BD1A4A0A400243154B1B1FE0
:1003C0001A60704739B1134A121D12680243114B6B
:1003D0001B1D1A6006E00F4A121D126882430D4B66
:1003E0001B1D1A607047042808D14FF0E0210969ED
:1003F00041F004014FF0E022116107E04FF0E021ED
:10040000096921F004014FF0E022116170470000FA
:100410000000FA050CED00E000E400E080E100E0FF
:1004200080FFFF1F10B50446CC48844208D101214B
:10043000042000F02DFB0021042000F029FB46E001
:10044000C748844208D10121082000F021FB002187
:10045000082000F01DFB3AE0C248844208D1012187
:10046000102000F015FB0021102000F011FB2EE001
:10047000BD48844208D10121202000F009FB002161
:10048000202000F005FB22E0B848844208D1012179
:10049000402000F0FDFA0021402000F0F9FA16E0BB
:1004A000B348844208D10121802000F0F1FA0021F4
:1004B000802000F0EDFA0AE0AE48844207D1012125
:1004C000801500F0E5FA0021A01500F0E1FA10BD5A
:1004D00010B50121084600F0DBFA0021012000F0F0
:1004E000D7FA10BD2DE9F041024600250026002074
:1004F00000230024002791F803C00CF00F0591F8A9
:1005000003C00CF0100CBCF1000F03D091F802C036
:100510004CEA050591F800C0BCF1000F31D0146819
:1005200000202BE04FF0010C0CFA00F3B1F800C0F2
:100530000CEA03069E4220D183004FF00F0C0CFA08
:1005400003F7BC4305FA03FC4CEA040491F803C02A
:10055000BCF1280F06D14FF0010C0CFA00FCC2F8D8
:1005600014C00AE091F803C0BCF1480F05D14FF068
:10057000010C0CFA00FCC2F810C0401C0828D1D3B2
:100580001460B1F800C0BCF1FF0F34DD54680020E6
:100590002EE000F1080C4FF0010808FA0CF3B1F856
:1005A00000C00CEA03069E4221D183004FF00F0CDD
:1005B0000CFA03F7BC4305FA03FC4CEA040491F877
:1005C00003C0BCF1280F05D100F1080C08FA0CF8A3
:1005D000C2F8148091F803C0BCF1480F07D100F1B4
:1005E000080C4FF0010808FA0CF8C2F81080401C03
:1005F0000828CED35460BDE8F0814FF6FF7101802A
:10060000022181700421C170704702460020936866
:100610000B400BB1012000E00020704701468868C4
:1006200080B2704702460020D3680B400BB1012016
:1006300000E0002070470146C86880B27047016141
:100640007047416170470AB1016100E04161704744
:10065000C16070474FF480320A43826181618261D8
:1006600082698269704702460020434B18684FF642
:100670008073184040EA021008433F4B18607047EF
:100680003E49C8617047F0B50A46002300240021A6
:10069000002500F00046B6F1004F02D1364EF16958
:1006A00001E0354E7168C0F3034583B200F4401693
:1006B000B6F5401F08D121F070612F4E766826F004
:1006C00070662D4F7E6012E000F48016B6F5801F34
:1006D00006D1032606FA05F4A14341F0706106E055
:1006E000460D360103FA06F6B14341F0706122B1BE
:1006F000460D360103FA06F6314300F00046B6F126
:10070000004F02D11C4EF16101E01B4E7160F0BD43
:1007100030B500228B071C0F0F2303FA04F2164B8F
:1007200008338C1053F824309343134C08348D1045
:1007300044F8253023468C1053F824308C07240FBE
:1007400000FA04F423430C4C08348D1044F825308F
:1007500030BD0A49DC3108607047000000080140E4
:10076000000C01400010014000140140001801403D
:10077000001C014000200140000001400000204218
:10078000DF48006840F00100DD4908600846406825
:10079000DC490840DA49486008460068DA49084000
:1007A000D74908600846006820F4802008600846A1
:1007B000406820F4FE0048604FF41F0088607047D6
:1007C000CF49096821F48031CD4A1160114609688A
:1007D00021F480211160B0F5803F03D0B0F5802F67
:1007E0000ED106E0C649096841F48031C44A11605F
:1007F00007E0C349096841F4A021C14A116000E043
:1008000000BF00BF704710B5014600220023002042
:100810004A11012A02D1BA4C236806E0022A02D109
:10082000B74C236A01E0B64C636A01F01F02012451
:1008300094401C400CB1012000E0002010BD38B5F0
:10084000002000900024002500BF3120FFF7DBFFCF
:1008500005460098401C00900098B0F5A06F01D0AC
:10086000002DF2D03120FFF7CEFF08B1012400E0C7
:100870000024204638BD01460020A14A106820F01F
:10088000F80040EAC10010607047A0490860704756
:10089000024600209A4B586820F47C1042EA01037B
:1008A0001843974B5860704798490866704701464F
:1008B0000020934A506820F00300084350607047BE
:1008C0008F48406800F00C007047014600208C4AB9
:1008D000506820F0F0000843506070470146002047
:1008E000874A506820F4E060084350607047014632
:1008F0000020834A506820F4605040EAC1005060F4
:10090000704729B17E4A527A02437D4B5A7204E005
:100910007B4A527A82437A4B5A7270477B49D8316C
:100920000860704701460020754A506820F4404036
:100930000843506070470021714A20321170704A9C
:1009400082F82010012802D004280AD104E00121F5
:100950006B4A2032117005E00521694A203211707E
:1009600000E000BF00BF70476949086070476449F4
:10097000096A0143624A1162704765494439086057
:10098000704730B500210022002400235C4D6D68C3
:1009900005F00C0121B1042905D0082923D105E077
:1009A0005C4D056022E05B4D05601FE0544D6D68B5
:1009B00005F47012524D6D6805F48034022505EB84
:1009C00092421CB9544D554305600BE04C4D6D6887
:1009D00005F400351DB1504D5543056002E04D4D05
:1009E0005543056002E04B4D056000BF00BF444D1C
:1009F0006D6805F0F0010909484D6B5C0568DD4044
:100A000045603F4D6D6805F4E061090A434D6B5C3C
:100A10004568DD4085603A4D6D6805F46051C90A4E
:100A20003E4D6B5C4568DD40C560354D6D6805F435
:100A30004041890B3A4D6B5CC568B5FBF3F5056128
:100A400030BD29B12E4A526902432D4B5A6104E050
:100A50002B4A526982432A4B5A61704729B1284A6E
:100A600092690243264B9A6104E0254A92698243C7
:100A7000234B9A61704729B1214AD2690243204B26
:100A8000DA6104E01E4AD26982431D4BDA61704785
:100A900029B11B4AD2680243194BDA6004E0184AB4
:100AA000D2688243164BDA60704729B1144A126942
:100AB0000243134B1A6104E0114A12698243104B3E
:100AC0001A61704712494039086070470F49C8647D
:100AD00070470B49C87170470948406A40F0807000
:100AE00007494862704701460020054A92680A405B
:100AF0000AB1012000E00020704701498872704768
:100B0000001002400000FFF8FFFFF6FE0000424226
:100B10008004424200127A0000093D0014000020C7
:100B20002400002010B50446FB48844209D101216D
:100B30008803FFF7ADFF00214FF48040FFF7A8FFC7
:100B400032E0F648844209D101214804FFF7ADFFA5
:100B500000214FF40030FFF7A8FF25E0F048844261
:100B600009D101218804FFF7A0FF00214FF4802064
:100B7000FFF79BFF18E0EB48844209D10121C8042C
:100B8000FFF793FF00214FF40020FFF78EFF0BE0EB
:100B9000E548844208D101210805FFF786FF0021BE
:100BA0004FF48010FFF781FF10BD2DE9F04786B0AC
:100BB00005460E460024A24600BFA1460027B08984
:100BC00000B100BF2F462C8A4CF6FF700440F0881D
:100BD00004432C82AC894EF6F3100440B08831896E
:100BE0000843718908430443AC81AC8A4FF6FF4047
:100BF0000440B0890443AC8201A8FFF7C2FEC64896
:100C0000874202D1DDF810A001E0DDF80CA0A88930
:100C100000F4004040B10AEBCA0000EB0A10316852
:100C20004900B0FBF1F807E00AEBCA0000EB0A103C
:100C300031688900B0FBF1F86420B8FBF0F00401E2
:100C40002009642101FB1089A88900F4004040B10B
:100C5000322000EBC900B0FBF1F000F007000443C4
:100C600008E0322000EB09106421B0FBF1F000F045
:100C70000F0004432C8106B0BDE8F0874FF4E1314A
:100C8000016000218180C18001810C21418100210E
:100C90008181704710B502460020108A4FF2FF0391
:100CA00018400B884C8823438C882343CC882343EB
:100CB0001843108210BD0021018041808180C180D5
:100CC000704721B1828942F40052828104E0828916
:100CD0004DF6FF731A4082817047F0B50346002439
:100CE00000260025002040F66A17B94200D100BF57
:100CF0001846C1F3421401F01F06012707FA06F552
:100D0000012C01D10C3004E0022C01D1103000E0A4
:100D100014301AB107682F43076002E00768AF4339
:100D20000760F0BD1AB1838A0B43838202E0838A95
:100D30008B4383827047028A4FF6F0731A40028217
:100D4000028A0A430282704782894FF2FF731A4077
:100D5000828182890A438281704721B1828942F06F
:100D60000202828104E082894FF6FD731A4082817B
:100D70007047028A4FF6DF731A400282028A0A43E2
:100D80000282704721B1028A42F48042028204E06A
:100D9000028A4BF6FF731A4002827047C1F30802C1
:100DA0008280704701468888C0F3080070478189B7
:100DB00041F0010181817047028BD2B20283028B24
:100DC00042EA012202837047028B02F47F420283CF
:100DD000028B0A430283704721B1828A42F02002CB
:100DE000828204E0828A4FF6DF731A408282704763
:100DF00021B1828A42F01002828204E0828A4FF698
:100E0000EF731A408282704721B1828A42F0080251
:100E1000828204E0828A4FF6F7731A40828270471A
:100E200021B1828942F40042828103E08289C2F3C7
:100E30000E028281704721B1828A42F4006282826E
:100E400004E0828A4FF2FF731A4082827047828ADE
:100E50004FF6FB731A408282828A0A43828270476D
:100E600021B1828A42F00202828204E0828A4FF635
:100E7000FD731A408282704702460020B1F5007F60
:100E800000D100BF13880B400BB1012000E000200F
:100E9000704701F40072B2F5007F00D100BFCA4371
:100EA0000280704770B50246002400230025002010
:100EB00040F66A16B14200D100BFC1F3421501F0FD
:100EC0001F03012606FA03F3012D02D19689334050
:100ED00006E0022D02D1168A334001E0968A3340A3
:100EE0000C12012606FA04F41688344013B10CB132
:100EF000012000E0002070BD10B50022002340F664
:100F00006A14A14200D100BF0A1201249440A3B286
:100F1000DC43048010BD0000003801400044004064
:100F200000480040004C0040005000408CB0354A62
:100F300007CA08AB07C3202232490C31684600F0CB
:100F40009FFE00F009F94FF0E020006940F0010039
:100F50004FF0E021086100F0C1F900F05BF900F00A
:100F600089F929A000F04AFF00F054FB18B932A01B
:100F700000F044FF04E039A000F040FF00BFFEE7AE
:100F8000012140A000F0EEFA4FF4487000F023F980
:100F900036E03F480068002832D14FF400513D4808
:100FA000FFF733FB00282BD00BA800F0ABFA054667
:100FB000BDF82C202946384800F09FFB84B2C82C8D
:100FC00019DA002C17D035A1284600F08EFE18B98A
:100FD00033A000F013FF0CE038A1284600F085FE96
:100FE00018B938A000F00AFF03E029463DA000F040
:100FF00005FF00F057FA4FF4FA702549086000BF6A
:10100000C7E70000302100083C3C2D425430352D0C
:10101000494E464F2D3E3E202A2A2A2A2A2A2A2A8B
:101020002A2ACEDECFDFBFD8D6C62A2A2A2A2A2AE3
:101030002A2A2A2A2A2A0A003C3C2D425430352DDD
:10104000494E464F2D3E3E20C0B6D1C0C4A3BFE995
:10105000BCECB2E2D5FDB3A3A1A30A003C3C2D42F7
:101060005430352D4552524F522D3E3E20C0B6D100
:10107000C0C4A3BFE9BCECB2E2B2BBD5FDB3A30AC6
:101080000000000041542B52455345540D0A000006
:1010900038000020000C0140640600204F4E0A007A
:1010A0003C3C2D425430352D494E464F2D3E3E207E
:1010B0004C49474854204F4E0D0A0A004F46460AF5
:1010C000000000003C3C2D425430352D494E464F27
:1010D0002D3E3E204C49474854204F46460D0A0AB3
:1010E000000000003C3C2D425430352D494E464F07
:1010F0002D3E3E20726563656976653A0D0A25735B
:101100000A000000704700BFFEE700BFFEE700BF17
:10111000FEE700BFFEE770477047704710B500F06C
:1011200051F800F066F800240CE00A4850F824005A
:1011300030B1084850F82400401E064941F8240008
:10114000601CC4B2032CF0DB10BD10B500F0B9F97F
:1011500010BD00003800002030B5294800684FF469
:101160007A72B0FBF2F1B1F1807F01D301201DE072
:1011700021F07F40401E4FF0E022506150170F22B7
:10118000002807DA13071D0E1E4B00F00F04241F62
:101190001D5503E013071C0E1B4B1C5400BF002001
:1011A0004FF0E022906107201061002008B100BFDD
:1011B000FEE74FF0E020006920F001004FF0E02151
:1011C000086130BD1148006820B110480068401E19
:1011D0000E49086070470D49086000BF0B49096857
:1011E0000029FBD1704701460948006808600020CB
:1011F000704707480068401C0549086070470000B8
:101200000000002018ED00E000E400E028000020CD
:101210002C00002008B501210820FFF71FFC20202A
:10122000ADF8000010208DF8030003208DF80200B7
:1012300069460F48FFF756F90120ADF800006946EE
:101240000B48FFF74FF90220ADF800006946084847
:10125000FFF748F920210648FFF7F1F9012104487A
:10126000FFF7EDF902210248FFF7E9F908BD000098
:10127000000C014008B501211420FFF7EFFB01200D
:10128000ADF8000004208DF8030069461148FFF70F
:1012900029F94FF40050ADF8000004208DF8030048
:1012A00069460D48FFF71EF908BD70B504460D46A6
:1012B00029462046FFF7A9F9012808D100BF294691
:1012C0002046FFF7A2F90128F9D0012070BD0020C7
:1012D000FCE70000000801400010014000B585B0A7
:1012E00001210420FFF7BAFB01218803FFF7B6FBB9
:1012F0004FF40070ADF8100018208DF81300032093
:101300008DF8120004A92248FFF7ECF84FF4806032
:10131000ADF8100004208DF8130004A91C48FFF755
:10132000E1F84FF4E13000900020ADF80400ADF892
:101330000600ADF80800ADF80C000C20ADF80A006E
:1013400069461448FFF731FC01211248FFF7B9FC48
:1013500005B000BD70B504460D46E1B20D48FFF77B
:101360001DFD00BF80210B48FFF786FD0028F9D046
:10137000204670BD10B5044600BF20210548FFF788
:101380007BFD0028F9D00348FFF70CFD10BD0000DD
:10139000000801400038014008B54FF4E060FEF756
:1013A000D3FF26208DF8000001208DF801008DF874
:1013B00002008DF803006846FEF7CBFF08BD00B5BC
:1013C00085B001214804FFF756FB01210420FFF7F7
:1013D00045FB0420ADF8100018208DF81300032001
:1013E0008DF8120004A94A48FFF77CF80820ADF8F0
:1013F000100004208DF8130004A94548FFF772F887
:101400004FF4E13000900020ADF80400ADF8060084
:10141000ADF80800ADF80C000C20ADF80A006946E4
:101420003C48FFF7C2FBFFF7B7FF012240F225510E
:101430003848FFF752FC01213648FFF742FC4021B3
:101440003448FFF726FD05B000BD70B504460D46D3
:1014500029462046FFF7A2FC00BF80212046FFF767
:101460000BFD0028F9D070BD2DE9F04107460D466F
:101470001646002400BF295D3846FFF7E6FF641CCE
:10148000B442F8D3BDE8F08170B506460C4600259D
:1014900000BF615D3046FFF7D8FF6D1C605D00281E
:1014A000F7D170BD40F2014000211B4A118005E0D8
:1014B0000022411E89B20846184B5A540028F7D121
:1014C000704710B514480088B0F5806F12DA40F20A
:1014D00025511048FFF7E6FC98B10E48FFF762FC73
:1014E0000E490D4A128888540B480088401C0A494E
:1014F000088006E040F225510648FFF7FDFCFFF7A3
:10150000D1FF10BD01460448008808800348704799
:10151000000801400044004030000020640A002020
:1015200008B501210820FFF799FA4FF40050ADF8F3
:10153000000004208DF8030003208DF802006946A6
:10154000FD48FEF7CFFF4FF48040ADF800001020BB
:101550008DF8030003208DF802006946F648FEF777
:10156000C1FF08BD2DE9F84305460C464FF00509BB
:101570004FF0010833E04FF48041EF48FFF75FF888
:101580000A20FFF728FE2946EC48FFF77DFF0026DA
:1015900021E00A20FFF71FFE6846FFF7B3FF07466A
:1015A000BDF80000002811DD387818B100BF00BF79
:1015B00000BF00BFE2A1384600F074FB48B1012C27
:1015C00001D1FFF76FFF0020BDE8F8836420FFF72B
:1015D00002FE701CC6B2142EDBDB00BF00BFB9F1E7
:1015E0000000A9F1010101F0FF09C4D100BF00BF53
:1015F000012C01D1FFF756FF4046E5E710B5044640
:101600004FF48041CC48FFF71CF82146CB48FFF748
:101610003BFF10BD10B5FFF783FFFFF7D0FE00249E
:1016200016E004EBC40101EB0412C64901EB4200D1
:10163000C5A100F0F3FB04EBC40101EB0412C149A6
:10164000FA3101EB4200C0A100F0E8FB601CC4B21B
:10165000052CE6DB0020BB492C3908700121BBA01A
:10166000FFF780FF10BD0146002209B90020704736
:1016700022E00B78612B06DB0B78662B03DC0B7802
:10168000573BD8B214E00B78412B06DB0B78462B86
:1016900003DC0B78373BD8B20AE00B78302B06DB43
:1016A0000B78392B03DC0B78303BD8B200E006E036
:1016B00000EB0212491C00BF08780028D9D100BFF6
:1016C0001046D4E72DE9F04105460E461446204663
:1016D00000F004FB87B20DB106B114B90020BDE8DB
:1016E000F081BE4207D33A462146284600F014FB5B
:1016F00008B9E819F3E70020F1E7F0B503460C4616
:101700001546002221460BE00F781046521C1F544C
:10171000491C08780A2802D008780D2800D103E077
:10172000087808B1AA42EFDB00BF087838B1087822
:101730000A2804D008780D2801D00020F0BD002030
:1017400098541046FAE730B58DB004460D464FF474
:1017500080417948FEF773FF0A20FFF73CFD45B151
:10176000287830B12B4622467AA1684600F056FB15
:101770000CE03CB1207828B1224679A1684600F0FF
:101780004DFB03E071A1684600F048FB00BF00BFBD
:1017900069466A48FFF778FE0DB030BDFEB50446D5
:1017A0000E46207808B900BF20E000251BE0201D70
:1017B00000EBC5004068211D01EBC5018978CDE92A
:1017C00000160290211D31F8352005EBC50101EB13
:1017D000051304F12C0101EB4300334662A100F034
:1017E0001DFB681CC5B22078A842E0DCFEBD2DE9D7
:1017F000F04F8FB004464FF00009CA4600215DA0AB
:10180000FFF7B0FE0EA8FFF77DFE804698F80000B7
:10181000002873D05AA1404600F044FA0028F8D0BE
:1018200000BF00BF00BFBEE008EB0900022202FBC0
:101830000A01BDF8382001A8FFF75FFF87B2322FF9
:1018400008DD3FB1012150A0FFF78CFE01200FB051
:10185000BDE8F08F09EB07001FFA80F90AF10100DB
:1018600000F0FF0A46A2394601A8FFF72BFF064603
:10187000002E60D025783A212046FFF78FFF4FF0E9
:10188000000B10E00BEBCB0000EB0B1204F12C0073
:1018900000EB420101A800F005FA00B1C3E70BF12B
:1018A000010000F0FF0BAB45ECDD3046FFF7DBFE3F
:1018B00081B2201D20F835103A21304600F004FA9C
:1018C00006462EB9012130A0FFF74CFE0120BEE7ED
:1018D000711C0E460846FFF7C6FEC1B2201D00EB84
:1018E000C50081703A21304600F0EEF9064636B95F
:1018F000012125A0FFF736FE0120A8E764E0711C56
:101900000E460846FFF7AFFE211D01EBC5014860FA
:10191000201D00EBC5004068211D01EBC5010090B2
:101920008B78211D31F8352005EBC50101EB051C35
:1019300004F12C012EE036E0000C01400044004090
:101940004F4B0000700000202000000041540D0AA1
:101950000000000041542B257325730D0A00000080
:1019600041542B25730D0A002558256325582563FE
:101970002558000041542B494E510D0A000000002B
:101980002B494E513A00000041542B494E51430D12
:101990000A00000001EB4C0077A100F03FFA20782C
:1019A000401C207000BFBDF83800022101FB1A0066
:1019B00048453FF739AFFFF775FD0121AFF2380019
:1019C000FFF7D0FD002042E7FFF76CFD0121AFF2E9
:1019D0004800FFF7C7FD012039E72DE9F041A8B025
:1019E00006462C213046FFF7D9FE00BF00BF002479
:1019F00047E004EBC40000EB041106F12C0000EBFF
:101A0000410260A101A800F009FA002101A8FFF736
:101A1000A9FD27A8FFF776FD0746387838B3AFF25F
:101A2000E001384600F03EF908B3BDF89C20394685
:101A30001AA8FFF762FE85B2322D03DD15B1002032
:101A40001AA9485553A229461AA8FFF73BFE80461B
:101A5000B8F1000F11D004EBC40101EB041206F53C
:101A6000937101EB4200414600F04DF905E0FFF7AC
:101A700019FD012028B0BDE8F081FFF713FD601CBF
:101A8000C4B23078A042B4DC0020F3E770B505465C
:101A9000287808B900BF22E000BF00BF00241BE087
:101AA00021463EA000F0AAF904EBC40000EB0412AA
:101AB00005F12C0000EB420144A000F09FF904EB7B
:101AC000C40000EB041205F5937000EB420148A03E
:101AD00000F094F9601CC4B22878A042E0DC70BD2C
:101AE00010B59AB000244B48FFF781FE4948FFF734
:101AF00074FF4848FFF7CAFF00BF36E004EBC4019B
:101B000001EB0412444901EB420044A100F0CAF881
:101B1000002828D043A000F071F92C213D48FFF7A0
:101B20003DFE04EBC40000EB04113A482C3000EBFE
:101B300041024BA101A800F071F9002101A8FFF7B3
:101B400011FD04EBC40000EB041132482C3000EB13
:101B5000410247A101A800F061F9002101A8FFF7A7
:101B600001FD1AB010BD601CC4B22A480078A04222
:101B7000C4DA0120F5E7000025583A25583A2558DF
:101B80000000000041542B524E414D453F25730D3E
:101B90000A0000002B524E414D453A003C3C2D427C
:101BA0005430352D494E464F2D3E3E202F2A2A2AAD
:101BB0002A2A2A2A4465766963655B25645D2A2A98
:101BC0002A2A2A2A2A2A2F0A000000003C3C2D42F9
:101BD0005430352D494E464F2D3E3E2044657669A2
:101BE000636520416464723A2025730A0000000096
:101BF0003C3C2D425430352D494E464F2D3E3E2023
:101C0000446576696365206E616D653A2025730AC7
:101C100000000000440000206A01002048433035E5
:101C2000000000003C3C2D425430352D494E464FBB
:101C30002D3E3E20CBD1CBF7B5BDD4B6B3CC484377
:101C40003035C4A3BFE9A3ACBCB4BDABBDF8D0D0A4
:101C5000C5E4B6D4C1ACBDD32E2E2E0A00000000C0
:101C600041542B504149523D25732C32300D0A000E
:101C700041542B4C494E4B3D25730D0A000000008A
:101C800040EA01039B0703D009E008C9121F08C0FE
:101C9000042AFAD203E011F8013B00F8013B521E7E
:101CA000F9D2704730B505462A460B4612F8010BAB
:101CB00013F8014B08B1A042F8D01CB1002802D0A3
:101CC0006D1CF1E7284630BDCAB2401E10F8011F56
:101CD0008A4202D00029F9D100207047421C10F836
:101CE000011B0029FBD1801A704710B5002200E0CB
:101CF000521C835C8C5CA34201D1002BF8D1D8B27A
:101D0000E1B2401A10BD034611F8012B00F8012B77
:101D1000002AF9D11846704730B505460020034621
:101D200000E05B1C934205D2EC5CC85C201A01D138
:101D3000002CF6D130BD2DE9F05F0546002092461B
:101D40009B4688460646814640241BE0284641467D
:101D50004746224600F041F853465A46C01A914180
:101D600010D311461846224600F028F82D1A67EBCA
:101D700001084F4622460120002100F01FF817EB12
:101D800000094E41201EA4F10104DFDC4846314623
:101D90002A464346BDE8F09F064C074D06E0E06842
:101DA00040F0010394E8070098471034AC42F6D3A2
:101DB000FEF7C2F95C2100087C210008202A04DB20
:101DC000203A00FA02F1002070479140C2F120034E
:101DD00020FA03F3194390407047202A04DB203A8D
:101DE00021FA02F00021704721FA02F3D040C2F13B
:101DF0002002914008431946704700000FB4054B7C
:101E000010B503A9044A029800F02CF810BC5DF844
:101E100014FB000055130008340000200FB4084BD9
:101E200010B504A902AA039800F01CF8044602A900
:101E3000002000F077F9204610BC5DF814FB00008C
:101E40002521000802E008C8121F08C1002AFAD1A3
:101E500070477047002001E001C1121F002AFBD12A
:101E6000704700002DE9FF4F8DB09B460F4604469A
:101E7000002606E025280BD05A460F999047641C8F
:101E8000761C20780028F5D111B03046BDE8F08FDF
:101E90000025A8460122984900E0054314F8013FB7
:101EA000203B02FA03F00842F7D120782E2817D100
:101EB00014F8010F45F004052A280ED06FF02F0208
:101EC0002078A0F1300109290AD808EB880102EB3B
:101ED000410100EB0108641CF2E757F8048B641C15
:101EE00020786C280DD004DC4C2812D06A2811D13F
:101EF00004E074280DD07A280CD10AE045F40015CE
:101F000007E0617845F48015814202D1641C05F533
:101F10008015641C2278692A45D008DC002AB3D0D9
:101F2000582A69D0632A10D0642A08D13BE0702A6D
:101F300067D0732A13D0752A5CD0782A5CD01046FB
:101F40005A460F999047761CD3E017F8040B8DF88A
:101F5000000000208DF80100E946012003E057F859
:101F6000049B4FF0FF3069074FF0000501D40AE0F1
:101F70006D1C45450DDA8542FADB19F8051000297C
:101F8000F6D106E06D1C8542FCDB19F8051000292E
:101F9000F8D12E4404E019F8010B5A460F999047E6
:101FA0006D1EF8D2A5E00A200021CDE90801C5F395
:101FB000025002280DD001CFC117031E71F100039A
:101FC0000DDA4FF0000CD0EB0C006CEB01012D236F
:101FD00008E0FF1D27F00707F7E80201EDE72B05F2
:101FE00004D52B238DF8283001233BE0EB0739D0B3
:101FF0002023F7E70A2000E010200021CDE90801A6
:1020000007E01020002145F00405CDE908014FF05C
:102010000808C5F3025002280FD001CF00214FF06D
:10202000000A2B071FD5702A0DD0DDE908C38CF0FC
:10203000100C5CEA030C0CD015E0FF1D27F007071D
:10204000F7E80201EBE740228DF828204FF0010A63
:102050000BE050EA010306D030238DF828308DF8CC
:10206000292002239A46582A04D024A20DF12009DF
:102070000B9209E026A2F9E7DDE90823FFF75BFEF2
:102080000B9B9B5C09F8013D50EA0102F4D1ADEBDA
:10209000090020300890680701D44FF00108089922
:1020A000884502DDA8EB010000E000208046002505
:1020B00006E00AA85A46405D0F9990476D1C761CB1
:1020C0005545F6DB04E030205A460F999047761CC0
:1020D000B8F10001A8F10108F5DC05E019F8010BE1
:1020E0005A460F999047761C0899481E0890002977
:1020F000F4DC641CC5E600000928010030313233ED
:102100003435363738396162636465660000000033
:10211000303132333435363738394142434445461D
:10212000000000000A68531C0B601070704700002C
:10213000534C415645000000000000004843303534
:102140005F534C41564500000000000000000000B5
:102150000000000000000000000000007C210008DA
:102160000000002038000000441E0008B4210008D0
:1021700038000020301E0000541E000800A24A044F
:102180000000000000000000010203040607080927
:10219000000000000102030401020304060708090D
:1021A000020406080000000000000000000000001B
:0421B000000000002B
:0400000508000131BD
:00000001FF
