:020000040800F2
:100000003813002099010008E71100084911000881
:10001000E511000845020008ED1600080000000088
:1000200000000000000000000000000001010008C6
:100030004702000800000000450100089D1200086A
:10004000B3010008B3010008B3010008B3010008C0
:10005000B3010008B3010008B3010008B3010008B0
:10006000B3010008B3010008B3010008B3010008A0
:10007000B3010008B3010008B3010008B301000890
:10008000B3010008B3010008B3010008B301000880
:10009000B3010008B3010008B3010008B301000870
:1000A000B301000861130008B3010008B3010008A0
:1000B000B3010008B3010008B3010008B301000850
:1000C000B3010008B3010008B3010008B301000840
:1000D000B3010008D5160008E1160008B3010008B6
:1000E000B3010008B3010008B3010008DFF80CD029
:1000F00000F096F8004800472D180008381300203B
:10010000224B19680868B0E8F00F80F30988BFF344
:100110006F8F4FF0000080F311884EF00D0E704786
:100120000000000006480068006880F3088862B696
:1001300061B6BFF34F8FBFF36F8F00DF00BF00BF0B
:1001400008ED00E0EFF30980BFF36F8F0F4B1A68E3
:1001500020E9F00F106008B54FF0500080F31188CF
:10016000BFF34F8FBFF36F8F01F064FF4FF00000BC
:1001700080F31188BDE8084019680868B0E8F00FFE
:1001800080F30988BFF36F8F704700BF2400002001
:10019000EFF3058070470000064880470648004797
:1001A000FEE7FEE7FEE7FEE7FEE7FEE7FEE7FEE727
:1001B000FEE7FEE719130008ED00000840EA01031E
:1001C0009B0703D009E008C9121F08C0042AFAD20D
:1001D00003E011F8013B00F8013B521EF9D27047D1
:1001E000D2B201E000F8012B491EFBD27047002279
:1001F000F6E710B513460A4604461946FFF7F0FF26
:10020000204610BD10B5002200E0521C835C8C5CBF
:10021000A34201D1002BF8D1D8B2E1B2401A10BDEF
:10022000064C074D06E0E06840F0010394E8070043
:1002300098471034AC42F6D3FFF75CFF2023000848
:1002400040230008FEE7704710B590F82110002405
:10025000022903D00421816301243DE001680A687A
:1002600022F00E020A6001680A6822F001020A60A8
:100270001A4A0168914201D1012121E0174A143242
:10028000914201D110211BE0144A2832914201D140
:10029000891515E0114A3C32914201D189140FE0D1
:1002A0000E4A5032914202D14FF4803108E00B4A9D
:1002B0006432914202D14FF4801101E04FF080711D
:1002C000064A083A5160012180F82110002180F887
:1002D0002010416B01B18847204610BD0800024044
:1002E0002DE9F84FDFF890A100220AF1040B144623
:1002F00001274FF00F090BF1040E00BF0B6807FA3E
:1003000004F52B40AB4274D1DFF870C14E68A6EB08
:100310000C0866452BD00DDC032E34D005DC36B33B
:10032000012E19D0022E2FD11BE0112E16D0122E25
:100330002AD119E0B8F5881F19D006DCB8F5803F3E
:1003400015D0B8F5801F1FD111E0B8F5001F0ED0F1
:10035000B8F5041F18D10AE0CA6815E0CA68121D72
:1003600012E0CA6808320FE0CA680C320CE08A68F2
:100370002AB1012A4FF0080203D0456104E00422AB
:1003800002E0056100E00022FF2B01D8064601E0F3
:1003900000F104064FEA840501D9A5F12005D6F83D
:1003A00000C009FA05F82CEA080C02FA05F54CEA37
:1003B000050CC6F800C04D68ED0057D5304DAE694C
:1003C00046F00106AE61AD6924F0030605F00105B3
:1003D00000952C4D06EB050CDCF80850A6074FEAFB
:1003E000167809FA08F6B543274EB04202D1002626
:1003F00010E03BE0254EB04201D101260AE0244E38
:10040000B04201D1022605E0224EB04201D10326BE
:1004100000E0042606FA08F62E43CCF808604D6882
:10042000DAF80060ED03554601D51E4300E09E4317
:100430002E604D68DBF80060AD035D4601D51E43BC
:1004400000E09E432E604D68DEF80060ED027546C8
:1004500001D51E4300E09E432E604D68AD020E4D57
:100460002E6801D51E4300E09E432E60641C102CB4
:10047000FFF444AFBDE8F88F000401400000111004
:10048000001002400000014000080140000C014043
:1004900000100140001401400C0401400AB1016148
:1004A00070470904FBE700000148806870470000BE
:1004B000140000200248816802781144816070476E
:1004C00014000020074810B5016841F010010160D8
:1004D000032000F093F8002000F006F800F03EF84A
:1004E000002010BD0020024000B5014687B0002268
:1004F000192000F063F8192000F054F813488169BE
:1005000041F400618161806905A900F400600690F2
:10051000684600F03BF900F069F90D490D4AB0FB5F
:10052000F1F10D48491E0260416040F2E7320021BE
:10053000C0E90321816000F023FB10B1012007B066
:1005400000BD054800F038FBF9E70000001002404C
:1005500040420F00002C0140080200200F4808B55F
:10056000816941F001018161816901F0010100911E
:10057000C16941F08051C161C069002200F0805022
:1005800000900F21901E00F019F80548416821F0F5
:10059000E06141F00071416008BD000000100240C0
:1005A0000000014000F01F0201219140400980003D
:1005B00000F1E020C0F8001170470000F0B40E4BCD
:1005C0001B680C46C3F30223C3F10705042D00D9B1
:1005D0000425191D072901D2002300E0DB1E012696
:1005E00006FA05F1491E214099409E40761E1640AC
:1005F0003143F0BC00F0F8BD0CED00E0064900F01E
:10060000070208684FF6FF03184040EA0220034A39
:1006100010430860704700000CED00E00000FA0590
:100620002DE9F047DFF8548105460E46D8F8000062
:1006300000F00700B0420CD2D8F8001021F00701FA
:100640003143C8F80010D8F8000000F00700B042AD
:100650006FD128684A4C810712D5400703D56068DE
:1006600040F4E06060602878000703D5606840F4DB
:10067000605060606068A96820F0F0000843606026
:100680002878C00744D06868012816D0216802285D
:1006900016D0890700294CDA616821F00301014373
:1006A0006160FFF701FF6968074641F28830012960
:1006B0000ED00229814618D026E021688903E9E797
:1006C0008901E7E7FFF7F0FEC11B494501D918E0B2
:1006D00081466068C0F381000128F3D118E000BFB3
:1006E000FFF7E2FEC11B49450BD86068C0F38100EB
:1006F0000228F5D10CE000BFFFF7D6FEC11B49452B
:1007000002D90320BDE8F087606810F00C0FF3D128
:10071000D8F80010404601F00701B1420BD901683A
:1007200021F0070131430160006800F00700B0428A
:1007300001D00120E6E72878400705D56068E96820
:1007400020F4E060084360602878000706D5606800
:10075000296920F4605040EAC100606000F056F85A
:100760006168084AC1F30311515CC840064908603A
:100770000020FFF7B9FE0020C4E70000002002407F
:1007800000100240FC220008200000200F2202601E
:100790000C4A536803F003034360536803F0F0030B
:1007A0008360536803F4E063C36052684FF4E0630E
:1007B00003EAD20202610448006800F00700086002
:1007C0007047000000100240002002400448054924
:1007D00000684968044AC1F30221515CC84070476F
:1007E00020000020001002400C23000804480549A6
:1007F00000684968044AC1F3C221515CC84070478F
:1008000020000020001002400C23000812A185B037
:100810000FC98DE80F0014A0144A006804905168B5
:10082000134801F00C03042B10D0082B0ED1C1F398
:100830008343C9031DF803000AD5516804AAC1F314
:100840004041515C0A4A5043B0FBF1F005B070479B
:1008500008494843FAE700000203040506070809AF
:100860000A0B0C0D0E0F10100102000000100240C8
:1008700000127A0000093D002DE9F84F0446007887
:10088000B94DC00748D06868C0F38100012807D07F
:100890006868C0F38100022809D16868C00306D5E2
:1008A0002868800338D5606800286FD034E060681D
:1008B000B0F5803F0BD010B1B0F5A02F11D0286853
:1008C00020F480302860286820F4802002E0286826
:1008D00040F480302860606888B1FFF7E5FD064687
:1008E00009E0286840F480202860F0E7FFF7DCFD8D
:1008F000801B642875D828688003F7D50CE0FFF7C3
:10090000D3FD064605E000BFFFF7CEFD801B64283F
:10091000F0D828688003F7D42078944E80074FF0F1
:1009200001094FF000083BD5686810F00C0F07D0A4
:100930006868C0F38100022809D16868C00306D442
:100940002868800714D5206901281FD110E020698C
:10095000B0B1C6F80090FFF7A7FD074605E000BF5D
:10096000FFF7A2FDC01B0228C4D828688007F7D56E
:100970002868616920F0F80040EAC10028600FE0B3
:10098000C6F80080FFF790FD074606E0E9E000BFEB
:10099000FFF78AFDC01B022823D828688007F7D4F8
:1009A000207800072CD57248A169D9B1C0F8009011
:1009B000FFF77AFD074604E0FFF776FDC01B02282B
:1009C0000FD8686A8007F7D56A484FF4FA51006873
:1009D000B0FBF1F0009000BF0098411E0091FAD2E8
:1009E0000EE080E0C0F80080FFF75EFD074604E0FF
:1009F000FFF75AFDC01B022875D8686A8007F7D434
:100A00002078400760D5E8690027C00008D4E8696D
:100A100040F08050E861E869012700F080500090C4
:100A200055480168C90513D40168834641F48071B3
:100A30000160FFF739FD824606E000BFFFF734FD95
:100A4000A0EB0A0064284ED8DBF80000C005F5D5FD
:100A5000E06801280AD008B1052813D0286A20F0E0
:100A600001002862286A20F0040002E0286A40F0B1
:100A700001002862E06841F2883B98B1FFF714FD5D
:100A800082460BE0286A40F004002862EEE700BFCF
:100A9000FFF70AFDA0EB0A0159455AD8286A8007DA
:100AA000F6D50CE0FFF700FD824605E0FFF7FCFC01
:100AB000A0EB0A0159454CD8286A8007F6D41FB12B
:100AC000E86920F08050E861E06988B36968C1F3A3
:100AD0008101022945D00228C6F8608004D0FFF7C2
:100AE000E3FC044638E034E0FFF7DEFC074604E0B0
:100AF000FFF7DAFCC01B02282BD828688001F7D446
:100B0000206AB0F5803F05D16868A16820F4003004
:100B100008436860D4E908010843696821F4741146
:100B200008436860C6F86090FFF7BEFC044606E024
:100B300015E000BFFFF7B8FC001B022809D82868A1
:100B40008001F7D50BE000BFFFF7AEFC001B0228C9
:100B500002D90320BDE8F88F28688001F4D4002072
:100B6000F8E70120F6E700000010024000004242D2
:100B7000800442422000002000700040704770470F
:100B800010B5040003D094F83D0010B107E0012037
:100B900010BD002084F83C00204600F00CF8022034
:100BA00084F83D00211D206800F0E0FB012084F85E
:100BB0003D00002010BD70470168CA6842F0010284
:100BC000CA600068016841F00101016000207047BF
:100BD000704770B50446006801694FF00005C943CD
:100BE000890715D4C168C943890711D4E91E016179
:100BF00001202077206880698007204602D0FFF717
:100C0000E7FF04E000F098F8204600F096F825771A
:100C100020680169C943490717D4C168C943490716
:100C200013D46FF0040101610220207720688069ED
:100C300010F4407F204602D0FFF7CAFF04E000F026
:100C40007BF8204600F079F8257720680169C943D0
:100C5000090716D4C168C943090712D46FF0080107
:100C60000161042020772068C0698007204602D0F7
:100C7000FFF7AEFF04E000F05FF8204600F05DF8FB
:100C8000257720680169C943C90617D4C168C943DB
:100C9000C90613D46FF01001016108202077206885
:100CA000C06910F4407F204602D0FFF791FF04E0B6
:100CB00000F042F8204600F040F8257720680169EE
:100CC000C943C90708D1C168C943C90704D1891EEE
:100CD0000161204600F032F820680169C943090625
:100CE00009D4C168C943090605D46FF080010161C8
:100CF0002046FFF743FF20680169C943490609D42C
:100D0000C168C943490605D46FF04001016120461E
:100D100000F01EF820680169C94389060BD4C16838
:100D2000C943890607D46FF0200101612046BDE860
:100D30007040FFF724BF70BD7047704700680349DB
:100D4000884201D1FFF7B6BB70470000002C01407C
:100D50007047704770B5026804461068D1685369DF
:100D600010F00F0F50D003F0010501F490763543D9
:100D70005DD0C20705D0CA0503D5E26B42F001027F
:100D8000E263420705D5DA0703D0E26B42F00202C4
:100D9000E263820705D5DA0703D0E26B42F0040272
:100DA000E263020705D5DA0703D0E26B42F00802DE
:100DB000E263E26B002A33D0800604D5880602D5B0
:100DC000204600F01FFB20684069E16BC0F38010F3
:100DD000090700D428B3204600F006FB20684169CB
:100DE00049061AD5416921F040014161606BA0B10B
:100DF0001B494163606BFFF727FA002810D0606B36
:100E0000416BBDE870400847830610D58B060ED5B0
:100E10002046BDE8704000F0F5BA2046FFF799FF84
:100E200070BD2046FFF795FF0020E06370BD03060C
:100E300006D50B0604D52046BDE8704000F0E6BBA1
:100E40004006F3D54806F1D5D168204621F040018F
:100E5000D160202184F8391000F075F970BD0000D0
:100E6000D913000870B5040004D094F839000025A7
:100E700010B106E0012070BD84F83850204600F023
:100E800023F8242084F839002068C16821F4005137
:100E9000C160204600F002FB2068016921F4904106
:100EA00001612068416921F02A0141612068C1681F
:100EB00041F40051C160E563202084F8390084F8D2
:100EC0003A00002070BD000070B586B00024009488
:100ED0000194029403942E4E03682E4902200322AB
:100EE0002D4DB34226D18B6943F480438B618B69CE
:100EF00003F4804304938B6943F004038B61896995
:100F0000039201F0040104910102CDE90010694649
:100F10002846FFF7E5F92815CDE90004694628467B
:100F20000294FFF7DDF9002206212520FFF746FB9A
:100F3000252028E0194EB34227D1CB6943F4003372
:100F4000CB61CB6903F4003304938B6943F0040352
:100F50008B618969039201F0040104910421CDE9B8
:100F6000001069462846FFF7BBF90820CDE90004C8
:100F7000694628460294FFF7B3F90022062126208D
:100F8000FFF71CFB2620FFF70DFB06B070BD00002D
:100F900000380140001002400008014000440040B9
:100FA00090F83A30202B22D1F9B1F2B190F83830D4
:100FB000012B1CD081628285C2850021C16322225F
:100FC00080F83A2080F838100168CA6842F48072CC
:100FD000CA6001684A6942F001024A610068C1685A
:100FE00041F02001C16000207047012070470220BD
:100FF0007047000070B506460068204A00250121B0
:101000001F4C90421BD1A0681E4A401CA060904219
:1010100003D1A2F18000A06004E010F8010C0A28BE
:1010200000D1217001223046A168FFF7B9FF6D1C85
:10103000EDB2A070052D01D20028F3D170BD124A87
:101040009042FBD1E0680F4A401C8032E060904241
:1010500002D10C48E06004E010F8010C0A2800D12D
:10106000617001223046E168FFF79AFF6D1CEDB216
:10107000E070052DE2D20028F3D170BD00380140A8
:101080000000002008010020004400402DE9F84342
:10109000044690F839001F4616460D46202850D1C8
:1010A000A5B19EB194F8380001284AD0012084F8F7
:1010B00038004FF00008C4F83C80212084F8390043
:1010C000FFF7F2F9A6848146E68426E00120BDE818
:1010D000F883E08C401EE084A0684B46B0F5805F4A
:1010E0004FF000024FF080012046009703D000F03F
:1010F000BEFAE8B90DE000F0BAFAC8B9288821684C
:10110000C0F308004860206908B16D1C05E0AD1C03
:1011100003E0216815F8010B4860E08C0028D8D165
:101120004B46002240212046009700F0A0FA08B16B
:101130000320CCE7202084F8390084F83880002090
:10114000C5E70220C3E77047FEE700002DE9F04144
:1011500086B000242048009401940294039481698D
:1011600041F020018161816901F0200104918169D0
:1011700041F004018161816901F0040104918169F8
:1011800041F0080181618069144F00F0080004906B
:101190000022C0213846FFF781F9DFF844800022A1
:1011A00003214046FFF77AF9C02001250226CDE948
:1011B0000005CDE9024669463846FFF791F803205D
:1011C000CDE90005CDE9024669464046FFF788F8BB
:1011D00006B0BDE8F08100000010024000080140A8
:1011E000000C0140FEE770470907090E002806DAE7
:1011F00000F00F0000F1E02080F8141D704700F1AE
:10120000E02080F80014704700251C4C207868B15D
:101210001B491CA000F06CFA80211948FEF7E7FF7B
:101220001748A06000F5807188622570607878B1F9
:101230001348803000F082FB114880218030FEF797
:10124000D6FF0F48803000F1C001E0608862657011
:10125000A07828B101221048A168FFF7A1FEA07074
:10126000E07830B10C4801224030A168FFF798FEC9
:10127000E070012000F03EFBC8E700000000002005
:10128000880000207278315F7265635F6461746109
:10129000203D2025730000008801002010B550205B
:1012A00080F31188BFF34F8FBFF36F8F00F056FFAD
:1012B00018B104494FF080500860002080F3118875
:1012C00010BD000004ED00E030B58FB02821684665
:1012D000FEF78DFF14210AA8FEF789FF01210804FB
:1012E000CDE900100024029402250491CDE90750B5
:1012F0004FF4E01009906846FFF7BEFA0F20CDE9E1
:101300000A056802CDE90C4002210AA80E94FFF7F5
:1013100087F90FB030BD00000D48016841F00101B0
:10132000016041680B4A1140416001680A4A11405E
:101330000160016821F480210160416821F4FE010F
:1013400041604FF41F0181600449C0030860704789
:10135000001002400000FFF8FFFFF6FE08ED00E07D
:101360000148FFF736BC000008020020F0B5026813
:10137000164B174C174D4FF08047984205D0B84296
:1013800003D0A04201D0A84203D122F070064A68DF
:101390003243984205D0B84203D0A04201D0A842BF
:1013A00003D122F44074CA68224322F080044A69BF
:1013B000224302608A68C2620A688262984201D14E
:1013C0000969016301214161F0BD0000002C014069
:1013D000000400400008004010B5406A0021C185AB
:1013E000C184FFF7B6FC10BD0168CA6822F4907290
:1013F000CA6001684A6922F001024A61202180F82E
:101400003A10704710B590F83A10222901D0022006
:1014100010BD8168B1F5805F11D0016900290168B4
:101420001FD0496801F07F03816A4A1C82620B70F9
:10143000C18D491E0904090CC18518D02BE0026931
:10144000816A002A0268526805D0D2B20A80816A95
:10145000491C8162ECE7C2F308020A80816A891C98
:10146000F7E74A68816A4B1C83620A70E0E701680B
:10147000CA6822F02002CA600168CA6822F4807239
:10148000CA6001684A6922F001024A61202180F89D
:101490003A10FFF7AFFD002010BD00002DE9F0412C
:1014A000044600680169E26821F44051114301617A
:1014B0002169A0680843616908432168CA6841F24C
:1014C0000C639A430243CA6020684169A26921F40F
:1014D0004071114341614C4920686425322688429D
:1014E0003CD1FFF783F900EBC00101EB001061680C
:1014F0008900B0FBF1F7FFF779F900EBC00101EBD0
:1015000000106168B0468900B0FBF1F0B0FBF5F067
:101510006FF01801484307EB800106EB0110B0FBA8
:10152000F5F000F0F006FFF761F900EBC00101EB08
:10153000001061688900B0FBF1F0B0FBF5F006EB3C
:101540000016FFF753F900EBC00101EB00106168D2
:101550008900B0FBF1F7FFF749F93BE0FFF736F9F7
:1015600000EBC00101EB001061688900B0FBF1F7EE
:10157000FFF72CF900EBC00101EB00106168B046E9
:101580008900B0FBF1F0B0FBF5F06FF018014843B3
:1015900007EB800106EB0110B0FBF5F000F0F00660
:1015A000FFF714F900EBC00101EB0010616889003E
:1015B000B0FBF1F0B0FBF5F006EB0016FFF706F913
:1015C00000EBC00101EB001061688900B0FBF1F78E
:1015D000FFF7FCF800EBC00101EB00106168890027
:1015E000B0FBF1F0B0FBF5F06FF01801484307EBEA
:1015F000800108EB0110B0FBF5F0216800F00F004E
:1016000030448860BDE8F0810038014090F839101E
:10161000212901D0022070478168B1F5805F016AFD
:101620000BD04A1C0262026809785160C18C491EC5
:101630000904090CC1840ED017E009880268C1F3BF
:101640000801516001690029016A02D0491C016248
:10165000ECE7891CFBE70168CA6822F08002CA60D7
:101660000068C16841F04001C160002070472DE969
:10167000F041984617460E460446069D1DE0681C3C
:101680001BD02DB1FEF710FFA0EB0800A84214D923
:101690002068C16821F4D071C1602068416921F0DF
:1016A00001014161202084F8390084F83A000020CB
:1016B00084F838000320BDE8F0812068006836EA2D
:1016C000000004D00020B842D9D00020F3E7012068
:1016D000F9E700000148FFF73DBB0000880100204A
:1016E0000148FFF737BB0000C8010020FEE70000FB
:1016F0000FB4054B10B503A9044A029800F017F87F
:1017000010BC5DF814FB00000518000884000020E0
:1017100002E008C8121F08C1002AFAD170477047BA
:10172000002001E001C1121F002AFBD170472DE902
:10173000F84F9946924688460546002706E0252838
:101740000AD051464A4690476D1C7F1C28780028D5
:10175000F5D13846BDE8F88F002315F8011F18466B
:101760002E2915D115F8011F04232A290DD06FF059
:101770002F022978A1F13004092C09D800EB800050
:1017800002EB400008446D1CF3E758F8040B6D1C95
:101790002A78002ADDD0632A07D0732A0FD010469A
:1017A00051464A4690477F1C2AE018F8042B8DF8D2
:1017B000002000218DF801106E46012103E058F849
:1017C000046B4FF0FF315A074FF0000401D409E0D9
:1017D000641C84420BDA8C42FADB325D002AF7D1BA
:1017E00005E0641C8C42FCDB305D0028F9D1274405
:1017F00004E016F8010B51464A469047641EF8D2A1
:101800006D1CA3E713B54FF6FF742346012269460A
:101810000548FFF73BFC0448234601226946403057
:10182000FFF734FC00201CBD8801002086B0FEF7C5
:1018300049FEFFF749FDFFF789FC1E481C494FF49C
:10184000E13500240160C0E901540C26C460C0E900
:1018500004468461C461FFF705FB16481649403011
:101860000160C0E90154C460C0E904468461C461F8
:10187000FFF7F8FA11A0FFF73BFF194C01220D48C2
:10188000A168FFF78DFBA0700A4801224030E16893
:10189000FFF786FBE070142212496846FEF78EFCC3
:1018A0000021684600F032F8206100F02AF8FEE7D7
:1018B00000380140880100200044004057697265EB
:1018C0006C65737320436F6E74726F6C204365692F
:1018D0006C696E67204C69676874730A00000000C9
:1018E00000000020E822000801460020842900D0E2
:1018F000C81C704710B500B9012000F039FB00206A
:1019000010BD10B500F05AFB002010BD3EB50446D6
:101910000D46B0F90800FFF7E7FF02A9CDE9000185
:10192000208A2B4682B2D4E9001000F0EBFB01289C
:1019300001D000203EBD02983EBD000070B50546B6
:101940000BA1FEF75FFC0B4C20B9012060600AA0E0
:10195000FFF7CEFE0BA12846FEF754FC20B900206D
:1019600060600AA0FFF7C4FEBDE8704000F030BA26
:101970004F4E0A00000000206C206973206F6E0A31
:10198000000000004F46460A000000006C2069730A
:10199000206F66660A0000002DE9F041184C0F46E2
:1019A0000546E6682068001D00F02CFA38B920686A
:1019B00090F82C1001208840216981432161681C26
:1019C00007D137B12168BDE8F0410E48091D00F08C
:1019D00051BA20683544B5424560216805D2A06BF4
:1019E000BDE8F041091D00F02DBA606B091D00F043
:1019F00029FAA06A854200D2A562BDE8F081000004
:101A000024000020240300202DE9F041054600F0C9
:101A10003DFA2E4CA068401CA06020682C4F10B1ED
:101A2000606940B32DE02560A068012829D1002617
:101A300006EB860007EB800000F0F6F9761C072E17
:101A4000F6D323488C3000F0EFF92148A03000F0A5
:101A5000EBF91F48B43000F0E7F91D48C83000F03A
:101A6000E3F91B48DC3000F0DFF919488C30606383
:101A70001430A06305E02068E96AC06A884200D893
:101A80002560606A401C6062E96A01202269884022
:101A90001043206101EB810007EB8000291D00F05D
:101AA000E9F900F013FA606900280CD02068E96AAF
:101AB000C06A884207D207494FF080500860BFF3E0
:101AC0004F8FBFF36F8FBDE8F0810000240000202E
:101AD0004802002004ED00E070B5114E114C17E0F3
:101AE00000F0A0FA3068B8B100F09CFB00F0CEF92D
:101AF000F068C568281D00F085F9A068401EA06048
:101B00006068401E606000F0E1F9284600F00CF8C3
:101B100060680028E4D170BD00F084FBF8E70000A5
:101B2000100300202400002010B50446006B00F0D4
:101B3000E1F92046BDE8104000F0DCB910484FF450
:101B40004061420706D0C01D0D4920F00700411A30
:101B5000C1F540610B4A00230144C2E90003083982
:101B6000103A21F0070111604B600B600B1AC0E9BD
:101B7000001393604FF000405360D0607047000046
:101B80003803002070000020074C4FF08056074DAE
:101B9000FFF7A2FF20680128FAD92E60BFF34F8F0C
:101BA000BFF36F8FF4E700004802002004ED00E06F
:101BB0002DE9F0479A46DDE9098481466FF0030379
:101BC000206B03EB82021044089D20F0070670078B
:101BD00007D0502080F31188BFF34F8FBFF36F8F72
:101BE000FEE723180A5C83F834200A5C12B1401C1B
:101BF0001028F6D3002784F84370072D00D306255C
:101C0000E562C4E91157201D00F019F904F118002C
:101C100000F015F92461C5F107006462A061E76472
:101C200084F8507052464946304600F0BFF82060B4
:101C3000B8F1000F01D0C8F80040BDE8F0870000FF
:101C400030B5114900E011460A688242FBD34B6867
:101C50005C18844203D140681844486008464368D1
:101C60001C18944209D1084C103C2468A24209D0A7
:101C700052681A4442600A6812680260814200D0C9
:101C8000086030BD0460F9E7700000200648416B31
:101C9000096829B1416BC968C968496881627047A0
:101CA0004FF0FF31FAE700002400002008484068A8
:101CB000401C4FF0500080F3118804D0BFF34F8FC9
:101CC000BFF36F8FFEE7BFF34F8FBFF36F8FFEE75A
:101CD000780000202DE9F0410546002700F0A2F928
:101CE000314E306808B9FFF729FFF06805424BD143
:101CF000C5B3083568070ED005F00700C0F108002D
:101D00000544680707D0502080F31188BFF34F8F38
:101D1000BFF36F8FFEE72DB37068854234D8224839
:101D2000103001460C6801E020460C466168A9426B
:101D300002D221680029F7D131688C4224D007688B
:101D40002168016060680837411B10290FD96019AC
:101D5000420708D0502080F31188BFF34F8FBFF3A4
:101D60006F8FFEE710E041606560FFF769FF616813
:101D70007068401A7060B268904200D2B060F0683B
:101D800001430020C4E9000100F04CFA780707D0B5
:101D9000502080F31188BFF34F8FBFF36F8FFEE7A2
:101DA0003846BDE8F08100006000002010B5031F38
:101DB0004FF080741C601B1F21F001011960191F76
:101DC000024B0B60143940380A6010BDAD1C00088E
:101DD00070B50A4C0A4D606820B90122402128469E
:101DE000FEF75CFB6068012806D12846BDE870401C
:101DF00000224021FEF752BB70BD00000000002011
:101E000000080140D0E9013201699A60D0E901235C
:101E10005A604A68824201D182684A6000220261A7
:101E20000868401E0860704700F108014FF0FF325B
:101E3000C0E90112C1600161002101607047002109
:101E40000161704730B50B685A1C02D000F10802DE
:101E500002E0026904E02246546825689D42FAD9EE
:101E600053684B6099608A60516008610168491C41
:101E7000016030BD42684A6093688B609368596026
:101E8000916008610168491C01607047502080F32F
:101E90001188BFF34F8FBFF36F8F0A494868401C0A
:101EA000486001280CD10848006810F0FF0F07D0E7
:101EB000502080F31188BFF34F8FBFF36F8FFEE781
:101EC000704700007800002004ED00E008494868F1
:101ED00028B1401E486001D180F31188704750201E
:101EE00080F31188BFF34F8FBFF36F8FFEE70000C1
:101EF0007800002070B5002827D0144DA0F1080408
:101F00006168E868014207D1502080F31188BFF36F
:101F10004F8FBFF36F8FFEE722683AB1502080F3F6
:101F20001188BFF34F8FBFF36F8FFEE7814361606E
:101F300000F078F860686968084468602046FFF738
:101F40007FFEBDE8704000F06DB970BD60000020FC
:101F500006484FF47A710068B0FBF1F14FF0E020D1
:101F6000491E4161072101617047000020000020E7
:101F700010B5020014D00F48006B38B1502080F328
:101F80001188BFF34F8FBFF36F8FFEE700F04AF861
:101F900000211046FFF700FD00F044F9002807D1AA
:101FA00005494FF080500860BFF34F8FBFF36F8F2C
:101FB00010BD00002400002004ED00E01CB5154811
:101FC0000024CDE900402346802213A1144800F0EC
:101FD00099F8012809D0401C1AD1502080F31188AB
:101FE000BFF34F8FBFF36F8FFEE7502080F3118850
:101FF000BFF34F8FBFF36F8F06484FF0FF312C3880
:10200000816201214161C460BDE81C4000F040B81C
:102010001CBD00005000002049444C450000000059
:10202000891B00080248016B491C016370470000CE
:10203000240000201448016B11B10121C1617047D7
:102040000021C1610169B1FA81F1C1F11F0101EB08
:1020500081020E4951F822306BB101EB820101F18E
:1020600008034A6852684A609A4201D152684A603D
:10207000D16801607047502080F31188BFF34F8F03
:10208000BFF36F8FFEE7000024000020480200200D
:102090001CB5194908780190FF20087008788DF860
:1020A00000009DF80000154A00F050001070072055
:1020B000906005E09DF800305B008DF80030401E18
:1020C0009DF800301B06F5D4000200F4E06090603B
:1020D000019808700A48016841F4700101600168C4
:1020E00041F070410160FFF733FF00205060FEF7C0
:1020F00019F800201CBD000000E400E0780000207A
:1021000020ED00E02DE9FF5F8346DDE90E8799466B
:1021100016468A469000FFF7DDFD05001AD05420D0
:10212000FFF7D8FD040012D025630021CDE902415C
:10213000CDE900874B46324651465846FFF738FDF9
:102140002046FFF761FC012004B0BDE8F09F28465F
:10215000FFF7D0FE4FF0FF30F6E700002DE9F04129
:102160002E4C0027206B40B1A069401CA061E069A3
:1021700000B101273846BDE8F081E668761CE660CC
:1021800013D1606B006838B1502080F31188BFF321
:102190004F8FBFF36F8FFEE7606BA16B6163A0632E
:1021A000206A401C2062FFF771FDA06ADFF8708092
:1021B000864209D3606B006880B1606BC068C568F7
:1021C000686886420DD2A0622068C06A00EB800178
:1021D00058F821000128CAD90127C8E74FF0FF307D
:1021E000F1E7281DFFF70EFEA86A18B105F11800E7
:1021F000FFF708FEE86A012122698140114321614D
:1022000000EB800108EB8100291DFFF733FEE86A2F
:102210002168C96A8842CDD30127CBE7240000207A
:10222000480200202DE9F0472C4D00242746286B5A
:1022300038B1FFF72BFE286B401E2863286B40B196
:1022400046E0502080F31188BFF34F8FBFF36F8FAC
:10225000FEE7A968224E0120D1B3A6F1B409804659
:102260003068E8B1F068C46804F11800FFF7CAFDEF
:10227000201DFFF7C7FDE06A2A6908FA00F1114343
:10228000296100EB800109EB8100211DFFF7F2FDC0
:10229000E06A2968C96A8842E2D3C5F81C80DFE792
:1022A0000CB1FFF7F3FCAC6944B14646FFF756FFAB
:1022B00000B1EE61641EF9D10020A861E86938B16F
:1022C0000849012738070860BFF34F8FBFF36F8FAE
:1022D000FFF7FCFD3846BDE8F08700002400002031
:1022E000FC02002004ED00E014230008091200089D
:1022F000000000000000000080000000000000005E
:1023000000000000010203040607080900000000A5
:102310000102030464656661756C745461736B003B
:10232000402300080000002088000000101700086B
:10233000C823000888000020B01200002017000801
:1023400000000000000000008800002008010020BC
:10235000000000000100000010000000000000006C
:1023600000A24A040000000000000000000000007D
:10237000000000000000000000000000000000005D
:10238000000000000000000000000000000000004D
:10239000000000000000000000000000000000003D
:1023A000000000000000000000000000000000002D
:1023B000000000000000000000000000AAAAAAAA75
:0823C000000000000000000015
:04000005080000ED02
:00000001FF
